:020000040800F2
:100000001808002091010008B7240008CD2100083D
:10001000B524000881060008152A00080000000029
:10002000000000000000000000000000BB240008E9
:100030000108000800000000B9240008BD240008E1
:10004000AB010008AB010008AB010008AB010008E0
:10005000AB010008AB010008AB010008AB010008D0
:10006000AB010008AB010008AB010008AB010008C0
:10007000AB010008AB010008AB010008AB010008B0
:10008000AB010008AB010008AB010008AB010008A0
:10009000AB010008AB010008AB010008AB01000890
:1000A000AB010008AB010008AB010008AB01000880
:1000B000AB010008AB010008AB010008AB01000870
:1000C000AB010008AB010008AB010008AB01000860
:1000D000AB010008FD290008092A0008AB0100084F
:1000E000AB010008AB010008AB01000800F002F80A
:1000F00000F03FF80AA090E8000C82448344AAF183
:100100000107DA4501D100F034F8AFF2090EBAE880
:100110000F0013F0010F18BFFB1A43F0010318473B
:10012000D42B0000F42B0000103A24BF78C878C10B
:10013000FAD8520724BF30C830C144BF04680C60ED
:10014000704700000023002400250026103A28BF35
:1001500078C1FBD8520728BF30C148BF0B60704739
:10016000642900F07380002070471FB51FBD10B5D3
:1001700010BD00F0E0F91146FFF7F7FF02F000FDB7
:1001800000F0FEF903B4FFF7F2FF03BC00F006FA3B
:100190000948804709480047FEE7FEE7FEE7FEE71B
:1001A000FEE7FEE7FEE7FEE7FEE7FEE70448054957
:1001B000054A064B7047000039250008ED0000088D
:1001C000180200201808002018040020180400203D
:1001D0000FB41CB5084B06AA7B44694600900598ED
:1001E00000F091F904460020694600F09FF920468E
:1001F0001CBC5DF814FB00005103000070B5044600
:1002000085690068C10601D5302600E02026C007B8
:1002100007D070BDD4E9012130469047206A401CC8
:1002200020626D1EF6D570BD70B5044685690078F4
:10023000C00707D170BDD4E9012120209047206A72
:10024000401C20626D1EF6D570BD00002DE9F04106
:100250000646002410687529314616A510D0AFF364
:100260000080002802DA404213A507E031688A07BF
:1002700001D512A502E0490704D511A5012401E02A
:10028000AFF3008000210A2206F1240709E0B0FB49
:10029000F2FCB0FBF2F302FB1C003030785418463D
:1002A000491C0028F3D123462A463046BDE8F041D8
:1002B00000F0CBB8000000002D0000002B00000073
:1002C000200000002DE9F0474FF0000A894604465F
:1002D000C0F820A02046E1688847002876D025286D
:1002E00006D0D4E901219047206A401C2062F1E742
:1002F000E168204600258847C4F81CA00646002770
:10030000C4F818A02A2E09D0304602F094FB38B366
:1003100004EB8708303EC8F8186019E059F8041B50
:10032000204604EB87029161E1688847012F064669
:1003300018D1E069002820DA25F020051DE0D8F862
:10034000180000EB800006EB40003038C8F81800B9
:100350002046E1688847064602F06DFB0028EED192
:10036000012F0AD02E2E08D12046E16888477F1C35
:100370000646022F45F02005C4DBA069002803DAF9
:10038000404245F00105A061E80701D025F01005C5
:10039000B6B1A6F14100192802D8203645F400650F
:1003A0004A463146204625604D46FFF7D9FE58B1F2
:1003B000012806D0ED1D25F0070000F1080989E7A6
:1003C00004E005F1040985E730468AE7206ABDE8C4
:1003D000F08730B505460B462A4613F8014B12F854
:1003E000010B08B1A042F8D01CB1002802D06D1C4E
:1003F000F1E7284630BD4FF0000200B513469446A1
:100400009646203922BFA0E80C50A0E80C50B1F16C
:100410002001BFF4F7AF090728BFA0E80C5048BF80
:100420000CC05DF804EB890028BF40F8042B08BF1E
:10043000704748BF20F8022B11F0804F18BF00F81A
:10044000012B70477047704770472DE9F0470D4604
:1004500099469246044600F124080168880604D5AE
:10046000E06921F01001216000E00120A84201DDD7
:10047000471B00E00027A1697A1902EB0900081A5E
:10048000A0612078C00602D42046FFF7B7FE002600
:1004900008E0D4E901211AF806009047206A401CC0
:1004A000761C20624E45F4DB2078C0060AD5204633
:1004B000FFF7A4FE06E0D4E9012130209047206A2E
:1004C000401C2062381EA7F10107F4DC07E0D4E9E4
:1004D000012118F805009047206A401C2062281E60
:1004E000A5F10105F3DC2046FFF79EFE207800060B
:1004F00002D50220BDE8F0870120FBE701694A1C14
:1005000002610878704700B58FB0CDE90131002154
:10051000059105497944CDE9031011466846FFF776
:10052000D1FE0FB000BD0000E5FFFFFF0A6802F832
:10053000010B0A607047754600F02CF8AE460500C6
:100540006946534620F00700854618B020B5FFF7EE
:100550002DFEBDE820404FF000064FF000074FF0A1
:1005600000084FF0000B21F00701AC46ACE8C009D1
:10057000ACE8C009ACE8C009ACE8C0098D467047DA
:1005800010B50446AFF300802046BDE81040FFF7E9
:10059000F9BD000000487047B4010020014918204F
:1005A000ABBEFEE7260002007047000070B50446AF
:1005B00000688168C943C90717D1816821F001012A
:1005C000816000F0D7FC05460AE000BF00F0D2FCD5
:1005D000401B022804D920688068C043C00706D0A9
:1005E00020688068C043C007F0D0002070BDA06ABA
:1005F00040F01000A062E06A40F00100E0620120DB
:1006000070BD0000F8B500260446009600688168B9
:10061000C943C9072DD0816841F0010181601648A6
:1006200016490068B0FBF1F000E0401E0090002881
:10063000FBD100F09FFC054616E000BF00F09AFCDD
:10064000401B022810D920688068C043C0070BD027
:10065000A06A40F01000A062E06A40F00100E06291
:1006600084F824600120F8BD20688068C043C0077A
:10067000E4D10020F8BD00001800002040420F0027
:10068000FEE700001FB500200190029003904FF498
:10069000806000906946024800F072FB1FBD0000B8
:1006A000000C01401FB5002002904FF480600090C4
:1006B00001200190032003906946024800F060FB8E
:1006C0001FBD0000000C014070B50024FFF7EAFFD9
:1006D000294E4FF4806500222946304600F045FC43
:1006E000122000F03BFB01222946304600F03DFC81
:1006F000142002F0F5F9FFF7C5FF142002F0F0F91D
:100700002946304600F02CFC28B11AE0012002F006
:10071000E7F9641CE4B22946304600F021FC08B930
:10072000642CF3D3002404E0012002F0D9F9641C06
:10073000E4B22946304600F013FC012801D1642CB4
:10074000F2D30E4C002500BF00F01AF860556D1C66
:10075000EDB2052DF8D3322002F0C2F9207861788D
:10076000E2780844A178114408442179884201D1F3
:10077000012070BD002070BD000C01400000002071
:100780002DE9F04700252C462E464FF48069DFF80E
:100790006C8004E0012002F0A3F96D1CADB24F465D
:1007A0004946404600F0DCFB08B9642DF2D3002531
:1007B000282002F095F9B9463946404600F0D0FBB2
:1007C000012801D0002706E0012704E0012002F003
:1007D00087F96D1CADB24946404600F0C1FB0128C7
:1007E00001D1642DF2D36006761C0025B6B247EA2B
:1007F0001064082ED3D32046BDE8F087000C0140DA
:10080000704772B6FEE70000F8B50024009490F837
:1008100024202546012A12D0012280F824204A688B
:100820001F23072A0DD20668776B521E02EB820245
:1008300093409F430B6893401F43776319E0022066
:10084000F8BD06680D2A0AD2376BD21F02EB82026E
:1008500093409F430B6893401F43376309E0F76A57
:100860000D3A02EB820293409F430B6893401F4373
:10087000F7620A68072306680A2A0AD3F7680A3A61
:1008800002EB420293409F438B6893401F43F76003
:1008900008E0376902EB420293409F438B68934024
:1008A0001F4337610A68102A01D0112A20D1124B48
:1008B00002689A4217D193681B0219D4936843F4D3
:1008C000000393600968102912D10C490C4A096889
:1008D000B1FBF2F101EB8101490000E0491E0091FA
:1008E0000029FBD104E0816A41F0200181620124EA
:1008F00080F824502046F8BD002401401800002054
:1009000040420F000068C06C704700002DE9F041C4
:100910004FF0000704003D467ED0A06A002628B9AB
:10092000E66284F82460204600F07EF82046FFF757
:100930003DFEA16AC90600D420B1A06A40F01000B3
:10094000A06269E0A16A21F4885141F00201A1622C
:100950006268E169237B0A4347EA43010A43A168CD
:100960004FF48077B94209D0012907D05FF0000128
:1009700094F814C0BCF1010F02D00AE03946F7E741
:10098000F3B1A36A43F02003A362E36A43F00103D7
:10099000E3622368D3F804C02CF4694C4CEA010CE0
:1009A000C3F804C021688B68DFF870C003EA0C0349
:1009B00013438B60A168B9420BD0012909D00CE028
:1009C000DFF85CC0A3690CEB43330B4343F40061D5
:1009D000DFE7218A0D05A5F580152168CB6A23F490
:1009E00070032B43CB62216889680E4B19409142FA
:1009F00008D1E662A16A21F0020141F00101A16281
:100A0000BDE8F081A06A20F0020040F01000A06272
:100A1000E06A40F00100E0620120F1E7FDF7E1FF4C
:100A200000E0FFFFFE0E1FFF00B585B00021009122
:100A300001910291039100680E49884218D10E4835
:100A4000816941F400718161816901F4007104914F
:100A5000816941F0040181618069694600F0040008
:100A600004900220009003200190044800F088F9CF
:100A700005B000BD00240140001002400008014004
:100A80002DE9F84300270D460446009700F072FA5E
:100A9000804620688168C90508D5A06A40F020001A
:100AA000A06284F824700120BDE8F8834168C9057C
:100AB00003D4C06A10F4700F2AD0022000F0F0FABC
:100AC0003B490968B1FBF0F62068036939490B42DC
:100AD0004FEA61014FEAA1121FD1C3684FEA611CBE
:100AE00013EA0C0F19D103690B4225D1C0681042DB
:100AF00022D1142023E0681C0AD02DB100F03AFA6C
:100B0000A0EB0800A84203D920680068800725D51B
:100B1000206800688007EED52DE003690B4202D102
:100B2000C168114206D0026923490A4206D1C06851
:100B3000084203D1542002E0292000E0FC20464373
:100B4000009816E0681C11D02DB100F013FAA0EB4C
:100B50000800A8420AD90098B04207D2A06A40F023
:100B60000400A06284F8247003209DE70098401CD4
:100B70000090B042E6D321686FF012000860A06ACE
:100B800040F40070A06220688068C0F342400728EB
:100B90000CD1207B50B9A06A20F48070A062A06ABA
:100BA000C00403D4A06A40F00100A06200207BE7EB
:100BB00018000020244992244992240070B504466C
:100BC00090F8240001280DD0012084F8240020464C
:100BD000FFF718FD02004FF0000005D084F8240054
:100BE000104670BD022070BDA16A40F201239943F6
:100BF00041F48071A1621F4D23681F49AB4218D197
:100C00000E6816F4702F14D0A66A46F48016A662F9
:100C10000E68760505D5A66A26F4005646F4805679
:100C2000A662A66AF6040AD5E66A26F00606E66219
:100C300006E0A66A26F48016A6625E68E9E7E0622E
:100C400084F824006FF00200186020688368C3F302
:100C50004243072B05D1A84208D1096811F4702F2F
:100C600004D0816841F480118160B9E7816841F462
:100C7000A001F9E7002801400424014010B590F8D4
:100C800021100022022905D00421816380F8202050
:100C9000012010BD01680B6823F00E030B60016892
:100CA0000B6823F001030B6090F84030C46B012106
:100CB00001FA03F3636080F8211080F820201046C9
:100CC00010BD000010B590F821100024022903D0B7
:100CD0000421816301243DE001680A6822F00E02CC
:100CE0000A6001680A6822F001020A601A4A016873
:100CF000914201D1012121E0174A1432914201D1E0
:100D000010211BE0144A2832914201D1891515E0C7
:100D1000114A3C32914201D189140FE00E4A5032FF
:100D2000914202D14FF4803108E00B4A6432914283
:100D300002D14FF4801101E04FF08071064A083A69
:100D40005160012180F82110002180F82010416BB2
:100D500001B18847204610BD0800024070B5044626
:100D600000F008F90546601C02D0044800780444ED
:100D700000F000F9401BA042FAD370BD0C00002027
:100D80002DE9F84FDFF8B8910024A9F1040B2346B0
:100D90000F2709F1040AABF1040EC9E00125A540B3
:100DA0002A40AA427DD1674ED1F804C0ACEB0608B8
:100DB000B44532D014DCBCF1030F3AD009DCBCF1ED
:100DC000000F2AD0BCF1010F1CD0BCF1020F31D1B1
:100DD0001DE0BCF1110F17D0BCF1120F2AD119E0A0
:100DE000B8F5881F19D006DCB8F5803F15D0B8F5E6
:100DF000801F1FD111E0B8F5001F0ED0B8F5041FF9
:100E000018D10AE0CB6815E0CB681B1D12E0CB6857
:100E100008330FE0CB680C330CE08B682BB1012B4F
:100E20004FF0080303D0456104E0042302E00561AC
:100E300000E00023FF2A01D8064601E000F1040685
:100E40004FEA840501D9A5F12005D6F8008007FAFC
:100E500005FC28EA0C0803FA05F548EA0508C6F877
:100E600000804D68ED0062D5374DAE6946F0010651
:100E7000AE61AD6924F0030605F001050095334D20
:100E800006EB050CDCF80850A607360F07FA06F843
:100E900025EA0805DFF8B880404503D14FF0000887
:100EA00017E044E0DFF8AC80404502D14FF0010884
:100EB0000FE0DFF8A480404502D14FF0020808E0BF
:100EC000DFF89880404502D14FF0030801E04FF071
:100ED000040808FA06F848EA0508CCF808804D68C6
:100EE000D9F80060ED024D4601D5164300E0964367
:100EF0002E604D68DAF80060AD02554601D5164304
:100F000000E096432E604D68DBF80060AD035D465F
:100F100001D5164300E096432E604D68DEF8006070
:100F2000ED03754601D5164300E096432E60641C20
:100F30000D682A46E5407FF431AFBDE8F88F000028
:100F400008040140000011100010024000000140A0
:100F500000080140000C0140001001400014014055
:100F60008068084000D0012070470AB101617047D5
:100F70000904FBE701488068704700000C0000206E
:100F80000248816802781144816070470C0000209B
:100F9000074810B5016841F010010160032000F01E
:100FA0006DF80F2000F006F800F024F8002010BDC6
:100FB0000020024070B50D4D04464FF47A71287838
:100FC000B1FBF0F00A490968B1FBF0F000F09CFBBE
:100FD00048B9102C07D200222146501E00F02EF8EE
:100FE00000206C6070BD012070BD00000C0000206E
:100FF00018000020094808B5816941F001018161AC
:10100000816901F001010091C16941F08051C16124
:10101000C06900F08050009008BD00000010024040
:10102000002809DB00F01F020121914040098000E7
:1010300000F1E020C0F8001170470000F0B40E4B42
:101040001B680C46C3F30223C3F10705042D00D926
:101050000425191D072901D2002300E0DB1E01260B
:1010600006FA05F1491E214099409E40761E164021
:101070003143F0BC01F0CFBC0CED00E0064900F0BC
:10108000070208684FF6FF03184040EA0220034AAF
:1010900010430860704700000CED00E00000FA0506
:1010A00010B501460020234C012922D0022939D055
:1010B00010291DD161682268D20119D51E48C1F3DB
:1010C0008342C903805C0AD561681B4AC1F3404171
:1010D000921E515C194AB2FBF1F1484301E01849F4
:1010E00048436168490203D440000321B0FBF1F09A
:1010F00010BD226AC2F30121012903D1920701D553
:10110000C80310BD022905D1626A920702D549F6CB
:10111000404010BD0329FCD121688903F9D54FF265
:10112000244010BD00F02AF96168C1F38131491CE7
:101130004900DBE700100240CC2C000800127A00C6
:1011400000093D002DE9F84305460078354CC007FD
:1011500054D0E0690026C00008D4E06940F0805017
:10116000E061E069012600F0805000902E4801689F
:10117000C90512D40168804641F480710160FFF70F
:10118000F9FE074605E000BFFFF7F4FEC01B642828
:1011900023D8D8F80000C005F6D5206A10F44070B6
:1011A00021D0A98801F4407181421CD0206A1F49D6
:1011B000012220F440700A6000220A602062C00709
:1011C00011D0FFF7D7FE074641F2883808E000BF8C
:1011D000FFF7D0FEC11B414502D90320BDE8F883CB
:1011E000206A8007F4D5206A696820F440700843BB
:1011F00020621EB1E06920F08050E061287880070D
:1012000005D56068A96820F44040084360602878EC
:10121000C00605D56068E96820F480000843606076
:101220000020DBE700100240007000404004424212
:101230002DE9F0470F46050061D0434E306800F0BD
:101240000700B84209D2306820F007003843306008
:10125000306800F00700B84251D128683B4C810744
:1012600012D5400703D5606840F4E06060602878DC
:10127000000703D5606840F4605060606068A9684A
:1012800020F0F000084360602878C00728D0686824
:10129000012810D02168022810D0890700292EDAF1
:1012A000616821F0030101436160FFF763FE80463E
:1012B00041F288390DE021688903EFE78901EDE704
:1012C000FFF758FEA0EB0801494502D90320BDE80D
:1012D000F0876068696800F00C00B0EB810FEFD117
:1012E000306800F00700B8420BD9306820F00700E2
:1012F00038433060306800F00700B84201D0012068
:10130000E5E72878400705D56068E96820F4E060E3
:10131000084360602878000706D56068296920F4D2
:10132000605040EAC100606000F038F86168084A27
:10133000C1F30311515CC8400649086006480068C3
:10134000FFF738FE0020C2E70020024000100240F4
:10135000DC2C00081800002010000020044805497B
:1013600000684968044AC1F30221515CC8407047D3
:101370001800002000100240EC2C00080448054929
:1013800000684968044AC1F3C221515CC8407047F3
:101390001800002000100240EC2C00080E4A516892
:1013A0000E4801F00C03042B11D0082B0FD10C4870
:1013B000C1F38343C903C05C0AD55168084AC1F32D
:1013C0004041921E515C054A5043B0FBF1F070471A
:1013D00004494843704700000010024000127A00A0
:1013E000BA2C000800093D002DE9F84F040070D028
:1013F0002078C04DC00749D06868C0F3810001283B
:1014000007D06868C0F38100022809D16868C0036A
:1014100006D52868800339D560680028E7D035E014
:101420006068B0F5803F0BD010B1B0F5A02F11D09F
:10143000286820F480302860286820F4802002E0AA
:10144000286840F480302860606890B1FFF792FD12
:1014500006460AE0286840F480202860F0E700BFD4
:10146000FFF788FD801B642873D828688003F7D5B0
:101470000CE0FFF77FFD064605E000BFFFF77AFDB1
:10148000801B6428F0D828688003F7D420789A4E0F
:1014900080074FF001094FF0000839D5686810F057
:1014A0000C0F07D06868C0F38100022809D1686872
:1014B000C00306D42868800714D52069012808D104
:1014C00010E02069B0B1C6F80090FFF753FD074661
:1014D00005E00AE1FFF74EFDC01B0228C4D82868CA
:1014E0008007F7D52868616920F0F80040EAC1005C
:1014F00028600DE0C6F80080FFF73CFD074604E0D9
:10150000FFF738FDC01B022823D828688007F7D4CE
:10151000207800072CD57948A169D9B1C0F800908E
:10152000FFF728FD074604E0FFF724FDC01B022853
:101530000FD8686A8007F7D571484FF4FA510068F0
:10154000B0FBF1F0009000BF0098411E0091FAD26C
:101550000EE080E0C0F80080FFF70CFD074604E0D5
:10156000FFF708FDC01B022875D8686A8007F7D40A
:101570002078400760D5E8690027C00008D4E869F2
:1015800040F08050E861E869012700F08050009049
:101590005C480168C90513D40168834641F4807131
:1015A0000160FFF7E7FC824606E000BFFFF7E2FCC0
:1015B000A0EB0A0064284ED8DBF80000C005F5D582
:1015C000E06801280AD008B1052813D0286A20F065
:1015D00001002862286A20F0040002E0286A40F036
:1015E00001002862E06841F2883B98B1FFF7C2FC35
:1015F00082460BE0286A40F004002862EEE700BF54
:10160000FFF7B8FCA0EB0A0159455AD8286A8007B1
:10161000F6D50CE0FFF7AEFC824605E0FFF7AAFC2A
:10162000A0EB0A0159454CD8286A8007F6D41FB1AF
:10163000E86920F08050E861E06988B36968C1F327
:101640008101022944D00228C6F8608004D0FFF747
:1016500091FC044638E034E0FFF78CFC074604E0D8
:10166000FFF788FCC01B02282BD828688001F7D41C
:10167000206AB0F5803F05D16868A16820F4003089
:1016800008436860D4E908010843696821F47411CB
:1016900008436860C6F86090FFF76CFC044606E0FB
:1016A00025E000BFFFF766FC001B022809D8286868
:1016B0008001F7D51BE000BFFFF75CFC001B022890
:1016C00002D90320BDE8F88F28688001F4D40EE029
:1016D0000128F7D06868226A00F48031914204D171
:1016E000616A00F47010884201D00120EAE700200E
:1016F000E8E700000010024000004242800442423D
:10170000180000200070004010B5401EB0F1807F2E
:1017100001D3012010BD4FF0E02460610F2160175C
:1017200001F079F90020A06107202061002010BDA0
:1017300070B590F83C20012A26D0012480F83C4066
:10174000022280F83D2003685A689D6822F07006E6
:101750000A6832435A600D4B02689A4208D0B2F1CF
:10176000804F05D00A4B9A4202D00A4B9A4204D1CC
:10177000496825F080031943916080F83D400021BD
:1017800080F83C10084670BD022070BD002C01405E
:10179000000400400008004010B5040003D094F895
:1017A0003D0010B107E0012010BD002084F83C008E
:1017B000204600F01FF8022084F83D00211D20681B
:1017C00000F0BCFE012084F8460084F83E0084F856
:1017D0003F0084F8400084F8410084F8420084F817
:1017E000430084F8440084F8450084F83D0000205C
:1017F00010BD000008B5124A01681248914207D195
:10180000816941F400618161806900F4006014E045
:10181000B1F1804F0AD00C4A91420FD1C16941F019
:101820000401C161C06900F0040006E0C16941F033
:101830000101C161C06900F00100009008BD000015
:10184000002C0140001002400008004090F83D10BC
:10185000012901D001207047022180F83D10006865
:101860000B49884208D0B0F1804F05D00949884221
:1018700002D00949884204D1816801F00701062994
:1018800003D0016841F001010160002070470000B1
:10189000002C0140000400400008004001680A6A72
:1018A00041F211131A4207D10A6A9B101A4203D15E
:1018B0000A6822F001020A60012180F83D10002030
:1018C000704770B5044690F83C000025012817D0F9
:1018D000012684F83C60022084F83D00206882687C
:1018E00022F0770222F47F4282600868502838D0C4
:1018F0000DDC20284FD005DC90B3102811D14AE030
:10190000022070BD302846D040280AD13BE0602834
:101910002FD070280DD0B0F5805F03D0B0F5005FF8
:1019200012D0012584F83D60002084F83C00284650
:1019300070BDCB68D1E90121206800F042FE20682B
:10194000816841F0770109E0CB68D1E90121206885
:1019500000F037FE2068816841F480418160E1E752
:1019600019E0CA684968206800F0E0FE502120684C
:1019700006E0CA684968206800F0E9FE6021206836
:1019800000F029FECEE7CA684968206800F0CEFE64
:1019900040212068F4E7226801461046F0E7000085
:1019A00010B586B000210091019102910391036866
:1019B000194902221948B3F1804F13D0184CA342A1
:1019C0000ED18B6943F008038B618969039201F0A2
:1019D000080104918115CDE900126946FFF7D0F99D
:1019E00006B010BD8B6943F008038B6189690392CF
:1019F00001F0080104914FF40061CDE9001269463D
:101A0000FFF7BEF90748416821F4407141F0E061F9
:101A100041F400714160E3E700100240000C014016
:101A2000000800400000014070B5044690F83C00FA
:101A300000260D4601280FD0012084F83C006AB131
:101A4000042A1DD0082A2FD00C2A3FD001260020BE
:101A500084F83C00304670BD022070BD206800F064
:101A6000C3FD2068816941F00801816120688169B6
:101A700021F004018161206881692A69114311E024
:101A8000206800F0D9FD2068816941F4006181611E
:101A90002068816921F480618161206881692A69F7
:101AA00041EA02218161D2E7206800F0F1FD20685F
:101AB000C16941F00801C1612068C16921F00401D8
:101AC000C1612068C1692A69114311E0206800F0F2
:101AD0000BFE2068C16941F40061C1612068C169E1
:101AE00021F48061C1612068C1692A6941EA02214B
:101AF000C161ACE710B5040003D094F83D0010B10B
:101B000007E0012010BD002084F83C00204600F0D2
:101B10001EF8022084F83D00211D206800F00EFD13
:101B2000012084F8460084F83E0084F83F0084F8E1
:101B3000400084F8410084F8420084F8430084F8AF
:101B4000440084F8450084F83D00002010BD704733
:101B500010B50446022249B104290ED0082913D039
:101B600094F84100012816D0012010BD94F83E00E1
:101B70000128F9D184F83E200FE094F83F000128B5
:101B8000F2D184F83F2008E094F840000128EBD11E
:101B900084F8402001E084F841200122206800F010
:101BA00003FD0F492068884203D1426C42F4004291
:101BB00042642068884208D0B0F1804F05D00949BE
:101BC000884202D00849884204D1816801F00701A7
:101BD000062903D0016841F001010160002010BD19
:101BE000002C0140000400400008004030B50446CD
:101BF0000D460068002200F0D7FC174B41F211118E
:101C000020688A10984209D1036A0B4206D1036A00
:101C1000134203D1436C23F4004343642068036AF6
:101C20000B4206D1016A114203D1016821F0010182
:101C3000016001203DB1042D08D0082D09D084F8A1
:101C40004100002030BD84F83E00FAE784F83F00F0
:101C5000F7E784F84000F4E7002C01407047704734
:101C6000F8B5016804460868CA684B6910F00F0FA0
:101C70004FF0000559D003F0010602F49077374386
:101C800065D0C10705D0D10503D5616C41F00101D4
:101C90006164410705D5D90703D0616C41F00201A9
:101CA0006164810705D5D90703D0616C41F0040157
:101CB0006164010707D502F02001314303D0616C54
:101CC00041F008016164616C00293AD0800604D5B6
:101CD000900602D5204600F07BFD20684069616CCB
:101CE000C0F38010090700D460B3204600F049FD1E
:101CF00020684069400621D52068143050E8001F54
:101D000021F0400140E80012002AF5D1E06BA8B1B3
:101D10006D494163E06BFEF7D5FF002811D0E06B01
:101D2000416B01B0BDE8F040084783060FD593062C
:101D30000DD52046BDE8F84000F04ABD2046FFF72B
:101D40008EFFF8BD2046FFF78AFF6564F8BD266B5D
:101D50002023012E7CD1C6067AD5D60678D5086810
:101D60004868009048694FF00206400640D5E16B94
:101D7000086840680004000CE8D0A28D8242E5D9D2
:101D8000E085886920282DD020680C3050E8001F9D
:101D900021F4807140E80012002AF5D12068143047
:101DA00050E8001F21F0010140E80012002AF5D19F
:101DB0002068143050E8001F21F0400140E8001274
:101DC000002AF5D184F84230256320680C3050E8B1
:101DD000001F21F0100140E80012002AF5D1E06B4D
:101DE000FEF74CFF6663A08DE18D401A81B22AE0B8
:101DF000A08DE18D401A81B2E08D0028A6D0002987
:101E0000A4D022680C3252E8000F20F4907042E80F
:101E10000007002FF5D12068143050E8002F22F081
:101E2000010240E80027002FF5D184F842302563F5
:101E300020680C3050E8002F22F0100240E8002308
:101E4000002BF5D166632046FFF708FFF8BDFFE7DA
:101E500005062BD5150629D594F841002128F5D182
:101E6000A068B0F5805F01D12069B0B1206A411C43
:101E70002162216800784860E08C401E0004000C5C
:101E8000E084E3D12068C16821F08001C16020684E
:101E9000C16841F04001C160D8E7206A0088C0F302
:101EA00008004860206A801C2062E5E74006CDD526
:101EB0005006CBD5CA68204622F04002CA6084F89A
:101EC000413000F082F9C1E77327000870B50400C3
:101ED00004D094F84100002510B106E0012070BD47
:101EE00084F84050204600F023F8242084F8410074
:101EF0002068C16821F40051C160204600F0CAFC8E
:101F00002068016921F4904101612068416921F054
:101F10002A0141612068C16841F40051C1606564D3
:101F2000202084F8410084F842006563002070BDE1
:101F300030B585B000240094019402940394324D8E
:101F40000368324802210322AB422ED1836943F455
:101F500080438361836903F480430493836943F07E
:101F60000803836180692A4D00F008000490402036
:101F7000CDE90001039269462846FEF701FF802063
:101F8000CDE90004694628460294FEF7F9FE21488F
:101F9000416841F0E06141F00401416000220B2101
:101FA0002520FFF74BF8252029E01B4DAB4228D117
:101FB000C36943F40033C361C36903F4003304937A
:101FC000836943F0040383618069144D00F00400C9
:101FD00004900420CDE90001039269462846FEF7EB
:101FE000CFFE0820CDE90004694628460294FEF79A
:101FF000C7FE00220A212620FFF720F82620FFF73F
:102000000FF805B030BD000000380140001002405C
:10201000000C014000000140004400400008014065
:1020200090F84230202B01D00220704721B11AB124
:102030000023036300F08ABC0120704710B54FF401
:102040007A7306222749284800F072F827A125480C
:10205000FEF7BFF910B100F08DFD36E025A1214853
:10206000FEF7B7F910B100F07FFD2EE023A11D4867
:10207000FEF7AFF910B100F0F3FD26E021A11948F9
:10208000FEF7A7F910B100F0F1FC1EE01FA1154802
:10209000FEF79FF910B100F0F9FD16E01DA11148FF
:1020A000FEF797F910B100F0F7FC0EE01BA10D4808
:1020B000FEF78FF910B100F0BFFD06E019A1094845
:1020C000FEF787F908B100F0BDFC06220549064875
:1020D000FFF7A6FFBDE81040062202491348FFF7AC
:1020E0009FBF000005000020240100206C656420D3
:1020F0006F6E00006C6564206F6600006372742070
:102100006F6E0000637274206F66000077696E2046
:102110006F6E000077696E206F6600006169722043
:102120006F6E0000616972206F6600006C01002014
:102130002DE9F843044690F841001F4616460D4627
:10214000202802D00220BDE8F8837DB176B10020BE
:102150006064212084F84100FEF70CFFA6848046CD
:10216000E684A068B0F5805F02D003E00120EAE7D2
:10217000206910B12E4600250EE000260CE08021DB
:10218000204600F0FEFBA0B9AEB116F8010B2168A5
:102190004860E08C401EE084E08C43464FF0000233
:1021A00000970028EBD14FF04001204600F0E9FBFA
:1021B00030B10320C7E735F8020BC0F30800E6E7AB
:1021C000202084F841000020BDE77047FEE70000B2
:1021D0003EB5002410480094019402940D49846097
:1021E000016004730475012505614FF460214460AA
:1021F000C161FEF78BFB08B1FEF703FB0095CDE94B
:10220000015469460448FEF7FFFA002801D0FEF7A2
:10221000F8FA3EBD002401401C00002030B585B016
:1022200000241B480094019402940394816941F0B6
:1022300020018161816901F020010491816941F0EF
:1022400004018161816901F004010491816941F017
:102250000801816180690F4D00F0080004900022A0
:1022600001212846FEF781FE01210091CDE90114EC
:10227000039169462846FEF783FD6815CDE9000401
:10228000694605480294FEF77BFD05B030BD0000AD
:102290000010024000080140000C014010B586B05B
:1022A000002418480094019402940394049414495F
:1022B0000594016047214160102181604FF6FF7154
:1022C000C0E9031444618461FFF766FA08B1FEF7C0
:1022D00098FA4FF48050009069460A48FFF7F1FAE7
:1022E00008B1FEF78EFA049404A906480594FFF796
:1022F0001FFA002801D0FEF784FA06B010BD0000D6
:10230000002C01404C00002030B58DB00024079413
:10231000089409940A940B941C2168460C94FEF7C7
:102320006AF81F484FF08041632502C041F61F4103
:1023300032C0802140F8104981611948FFF72CFA1A
:1023400008B1FEF75EFA4FF48050079007A91448D1
:10235000FFF7B7FA08B1FEF754FA1148FFF7CAFBC6
:1023600008B1FEF74EFA0B940BA90D480C94FFF739
:10237000DFF908B1FEF745FA6020CDE9000502203B
:1023800002900C22694604940548FFF74DFB08B102
:10239000FEF737FA0248FFF703FB0DB030BD00002F
:1023A0009400002010B58EB000240794089409947E
:1023B0000A940B941C2168460C94FEF71CF82048E4
:1023C0001E49016041F61F41C0E90114C721C0E95F
:1023D000031480218161FFF7DFF908B1FEF711FADC
:1023E0004FF48050079007A91548FFF76AFA08B123
:1023F000FEF707FA1248FFF77DFB08B1FEF701FA76
:102400000B940BA90E480C94FFF792F908B1FEF754
:10241000F8F960200090B920019002200290042079
:102420000490082269460648FFF7FEFA08B1FEF755
:10243000E8F90348FFF7B4FA0EB010BD00080040F9
:10244000DC0000200C4810B50A4901604FF4E1316E
:102450004160002181600C22C160C0E904128161E9
:10246000C161FFF733FD002803D0BDE81040FEF73F
:10247000C8B910BD00380140240100200C4810B537
:102480000A4901604FF416514160002181600C221D
:10249000C160C0E904128161C161FFF717FD002826
:1024A00003D0BDE81040FEF7ACB910BD00440040B9
:1024B0006C010020FEE7FEE770477047FEF760BD45
:1024C00030B593B028216846FDF795FF14210AA87E
:1024D000FDF791FF002501200F951095119501043E
:1024E00012958DE8230004904FF4E010CDE9081018
:1024F000022407946846FEF777FF08B172B6FEE73C
:102500000AA90F2081E831004FF48060CDE90D0564
:1025100002210AA8FEF78CFE08B172B6FEE74FF45E
:10252000004011900F940FA8FEF70CFE002801D078
:1025300072B6FEE713B030BD70470000F0B5026818
:10254000164B174C174D4FF08047984205D0B842B4
:1025500003D0A04201D0A84203D122F070064A68FD
:102560003243984205D0B84203D0A04201D0A842DD
:1025700003D122F44074CA6822434C6922F08002DD
:10258000224302608A68C2620A688262984201D16C
:102590000969016301214161F0BD0000002C014087
:1025A000000400400008004010B501F01F030121A5
:1025B000046A99408C430462016A9A4011430162A3
:1025C00010BD10B5846842EA032224F47F440A4314
:1025D0002243826010BD826822F070020A4342F0FA
:1025E000070181607047000030B5036A026A22F07B
:1025F000010202624268846924F073050C682C436E
:1026000023F002058B682B430A4DA8420BD123F01F
:102610000805CB6822F440722B434D6923F0040374
:1026200015438A692A4342608461496841630362B1
:1026300030BD0000002C014030B5026A036A23F06F
:1026400010030362436884690D6824F4E64444EA95
:1026500005248D6822F0200242EA05120B4DA842A3
:102660000ED1CD6822F0800242EA05124D6923F4B2
:10267000406343EA85038D6922F0400243EA850303
:102680004360846149688163026230BD002C01406F
:1026900030B5036A026A22F4807202624268C46939
:1026A00023F4007324F073050C682C438D6843EA0F
:1026B00005230C4DA8420ED1CD6823F4006343EAF4
:1026C00005234D6922F4405242EA05128D6923F434
:1026D000806342EA05124260C4614968C1630362D3
:1026E00030BD0000002C014030B5046A026A22F4BB
:1026F000805202624268C3690D6823F4E64343EAEC
:1027000005238D6824F4005444EA0534064DA8429C
:1027100004D14D6922F4804242EA85124260C361CD
:1027200049680164046230BD002C014010B5036AA1
:10273000046A24F001040462846924F0F00444EA89
:10274000021423F00A020A438461026210BD10B52C
:10275000036A046A24F010040462846923F0A0036D
:1027600024F4704444EA023243EA011182610162B6
:1027700010BD10B5406A0021C185C184FFF76FFA12
:1027800010BD01680C3151E8002F22F4907241E82D
:102790000023002BF5D10168143151E8002F22F0FD
:1027A000010241E80023002BF5D1016B012909D179
:1027B00001680C3151E8002F22F0100241E800239B
:1027C000002BF5D1202180F84210002101637047D1
:1027D00008B590F84210222901D0022008BD826875
:1027E0004FF480539A4201D1016921B1816A9A4222
:1027F0001BD04AB10AE00268816A5268C2F308023B
:102800000A80816A891C08E0026972B10268526814
:1028100002F07F020A70816A491C8162C18D491EE3
:102820000904090CC18503D01BE002685268F1E776
:102830000168CA6822F02002CA600168CA6822F4EE
:102840008072CA6001684A6922F001024A6120214F
:1028500080F8421000214163026B012A03D0FFF788
:10286000EDFB002008BD016301680C3151E8002F29
:1028700022F0100241E80023002BF5D101680A681C
:10288000D20602D50A6849680091818DFFF7E6F902
:10289000E7E7000070B5044600680169E26821F4CA
:1028A0004051114301612169A068084361690843EF
:1028B0002168CA6841F20C639A430243CA602068E7
:1028C0004169A26921F44071114341611E492068A8
:1028D000884202D1FEF752FD01E0FEF73FFD00EB1A
:1028E000C00101EB0012606864218000B2FBF0F3CC
:1028F000B3FBF1F36FF018067343B2FBF0F5B2FBD4
:10290000F0F605EB8305322303EB0515B5FBF1F576
:10291000B6FBF1F605F0F00505EB0615B2FBF0F697
:10292000B2FBF0F0B0FBF1F06FF01802504306EB91
:10293000800003EB0010B0FBF1F0216800F00F0005
:102940002844886070BD00000038014081628285A3
:10295000C28500214164222180F84210016921B121
:102960000168CA6842F48072CA6001684A6942F02C
:1029700001024A610068C16841F02001C160002085
:1029800070472DE9F041984617460E460446069DCD
:1029900027E0681C25D02DB1FEF7ECFAA0EB08006B
:1029A000A8421ED920680C3050E8001F21F4D071D5
:1029B00040E80012002AF5D12068143050E8001FCA
:1029C00021F0010140E80012002AF5D1202084F80E
:1029D000410084F84200002084F840000320BDE854
:1029E000F0812068006836EA000004D00020B84278
:1029F000CFD00020F3E70120F9E700000148FFF7FE
:102A00002FB90000240100200148FFF729B9000078
:102A10006C010020FEE70907090E002804DB00F125
:102A2000E02080F80014704700F00F0000F1E02073
:102A300080F8141D704730380A2801D201207047F1
:102A40000020704710B5084C012211462046FEF7C1
:102A50008CFA40F6B83000F035F820460022BDE888
:102A600010400121FEF781BA00080140094910B564
:102A70000968BE20C86308210648FFF769F84FF4CB
:102A80007A6000F01FF8BDE8104008210148FFF708
:102A9000ADB80000DC000020094910B50968BA2073
:102AA000C86308210648FFF753F840F2DC5000F0F5
:102AB00009F8BDE8104008210148FFF797B8000069
:102AC000DC00002070B5054600244FF47A7603E060
:102AD000304600F005F8641CAC42F9D370BD00002C
:102AE00070B542F21074094D201A86B2286844620B
:102AF0002846FEF7ABFE286801E0416A8CB2B4427A
:102B0000FBD8BDE870400148FEF7C8BE4C0000206D
:102B10000A4810B5006801644B2905D900F024F873
:102B2000BDE81040FFF7A2BF142905D200F022F83B
:102B3000BDE8104000F094B810BD000094000020E3
:102B400010B50848FEF73AF801210648FDF798FF4E
:102B50000448FDF7D7FE2921B0FBF1F0C0F1630076
:102B6000C0B210BD1C0000200C210148FFF73EB888
:102B7000940000200C210148FEF7EABF94000020D9
:102B80000EB5FEF705FAFFF79BFCFFF747FBFFF7D3
:102B900059FCFFF71DFBFFF705FCFFF77FFBFFF775
:102BA0006DFCFFF7B1FB06221A491B48FFF738FA04
:102BB000062218491948FFF733FA40F6B83818A02A
:102BC000D0E90010CDE90110FFF7BAFF0446FDF788
:102BD0007BFDD0B1144D009414A1AB782A7801A8E4
:102BE000FDF7F6FA86B24FF47A773B46324601A9F2
:102BF0000948FFF79DFA3B46324601A90748FFF70F
:102C000097FAA8782146FFF783FF4046FFF75AFF5F
:102C1000D5E7000005000020240100206C01002001
:102C200030303B30303B3030000000202532643BF8
:102C30002532643B2532640010B5084C0122114650
:102C40002046FEF792F940F2DC50FFF73BFF2046AA
:102C50000022BDE810400121FEF787B900080140BD
:102C6000094910B50968B420C86308210648FEF771
:102C70006FFF4FF47A60FFF725FFBDE81040082191
:102C80000148FEF7B3BF0000DC000020094910B581
:102C90000968B820C86308210648FEF759FF40F2CA
:102CA000DC50FFF70FFFBDE8104008210148FEF798
:102CB0009DBF0000DC00002001020203040506079E
:102CC00008090A0B0C0D0E0F101001020203040577
:102CD000060708090A0B0C0D0E0F1010000000006B
:102CE00000000000010203040607080900000000BC
:102CF00001020304142D0008000000201C00000045
:102D000028010008302D00081C000020FC070000EE
:102D10004401000800000000000000000000000066
:102D20000100000010000000000000000024F4007A
:04000005080000ED02
:00000001FF
